{
  "_format": "hh-sol-artifact-1",
  "contractName": "SolarEnergyCertificate",
  "sourceName": "contracts/SolarEnergyCertificate.sol",
  "abi": [
    {
      "inputs": [],
      "stateMutability": "nonpayable",
      "type": "constructor"
    },
    {
      "anonymous": false,
      "inputs": [
        {
          "indexed": true,
          "internalType": "address",
          "name": "newAdmin",
          "type": "address"
        },
        {
          "indexed": true,
          "internalType": "address",
          "name": "by",
          "type": "address"
        }
      ],
      "name": "AdminAdded",
      "type": "event"
    },
    {
      "anonymous": false,
      "inputs": [
        {
          "indexed": true,
          "internalType": "uint256",
          "name": "id",
          "type": "uint256"
        },
        {
          "indexed": true,
          "internalType": "address",
          "name": "owner",
          "type": "address"
        },
        {
          "indexed": false,
          "internalType": "uint256",
          "name": "energyWh",
          "type": "uint256"
        },
        {
          "indexed": false,
          "internalType": "uint256",
          "name": "timestamp",
          "type": "uint256"
        },
        {
          "indexed": true,
          "internalType": "address",
          "name": "issuer",
          "type": "address"
        },
        {
          "indexed": false,
          "internalType": "uint256",
          "name": "priceWei",
          "type": "uint256"
        }
      ],
      "name": "CertificateIssued",
      "type": "event"
    },
    {
      "anonymous": false,
      "inputs": [
        {
          "indexed": true,
          "internalType": "uint256",
          "name": "id",
          "type": "uint256"
        },
        {
          "indexed": true,
          "internalType": "address",
          "name": "from",
          "type": "address"
        },
        {
          "indexed": true,
          "internalType": "address",
          "name": "to",
          "type": "address"
        },
        {
          "indexed": false,
          "internalType": "uint256",
          "name": "priceWei",
          "type": "uint256"
        },
        {
          "indexed": false,
          "internalType": "uint256",
          "name": "timestamp",
          "type": "uint256"
        }
      ],
      "name": "CertificatePurchased",
      "type": "event"
    },
    {
      "anonymous": false,
      "inputs": [
        {
          "indexed": true,
          "internalType": "uint256",
          "name": "id",
          "type": "uint256"
        },
        {
          "indexed": true,
          "internalType": "address",
          "name": "by",
          "type": "address"
        },
        {
          "indexed": false,
          "internalType": "uint256",
          "name": "timestamp",
          "type": "uint256"
        }
      ],
      "name": "CertificateRetired",
      "type": "event"
    },
    {
      "anonymous": false,
      "inputs": [
        {
          "indexed": true,
          "internalType": "address",
          "name": "company",
          "type": "address"
        },
        {
          "indexed": true,
          "internalType": "address",
          "name": "by",
          "type": "address"
        }
      ],
      "name": "CompanyRegistered",
      "type": "event"
    },
    {
      "anonymous": false,
      "inputs": [
        {
          "indexed": true,
          "internalType": "address",
          "name": "company",
          "type": "address"
        },
        {
          "indexed": true,
          "internalType": "address",
          "name": "by",
          "type": "address"
        }
      ],
      "name": "CompanyRemoved",
      "type": "event"
    },
    {
      "anonymous": false,
      "inputs": [
        {
          "indexed": false,
          "internalType": "uint256",
          "name": "newDefaultPriceWei",
          "type": "uint256"
        },
        {
          "indexed": true,
          "internalType": "address",
          "name": "by",
          "type": "address"
        }
      ],
      "name": "DefaultPriceUpdated",
      "type": "event"
    },
    {
      "anonymous": false,
      "inputs": [
        {
          "indexed": false,
          "internalType": "uint256",
          "name": "newMinEnergyWh",
          "type": "uint256"
        },
        {
          "indexed": true,
          "internalType": "address",
          "name": "by",
          "type": "address"
        }
      ],
      "name": "MinEnergyUpdated",
      "type": "event"
    },
    {
      "anonymous": false,
      "inputs": [
        {
          "indexed": true,
          "internalType": "address",
          "name": "producer",
          "type": "address"
        },
        {
          "indexed": false,
          "internalType": "uint256",
          "name": "newPriceWei",
          "type": "uint256"
        },
        {
          "indexed": true,
          "internalType": "address",
          "name": "by",
          "type": "address"
        }
      ],
      "name": "ProducerPriceUpdated",
      "type": "event"
    },
    {
      "anonymous": false,
      "inputs": [
        {
          "indexed": true,
          "internalType": "address",
          "name": "producer",
          "type": "address"
        },
        {
          "indexed": true,
          "internalType": "address",
          "name": "by",
          "type": "address"
        }
      ],
      "name": "ProducerRegistered",
      "type": "event"
    },
    {
      "anonymous": false,
      "inputs": [
        {
          "indexed": true,
          "internalType": "address",
          "name": "producer",
          "type": "address"
        },
        {
          "indexed": true,
          "internalType": "address",
          "name": "by",
          "type": "address"
        }
      ],
      "name": "ProducerRemoved",
      "type": "event"
    },
    {
      "stateMutability": "payable",
      "type": "fallback"
    },
    {
      "inputs": [
        {
          "internalType": "address",
          "name": "_addr",
          "type": "address"
        }
      ],
      "name": "addAdmin",
      "outputs": [],
      "stateMutability": "nonpayable",
      "type": "function"
    },
    {
      "inputs": [],
      "name": "admin",
      "outputs": [
        {
          "internalType": "address",
          "name": "",
          "type": "address"
        }
      ],
      "stateMutability": "view",
      "type": "function"
    },
    {
      "inputs": [
        {
          "internalType": "uint256",
          "name": "",
          "type": "uint256"
        }
      ],
      "name": "certificates",
      "outputs": [
        {
          "internalType": "uint256",
          "name": "id",
          "type": "uint256"
        },
        {
          "internalType": "address",
          "name": "owner",
          "type": "address"
        },
        {
          "internalType": "uint256",
          "name": "energyWh",
          "type": "uint256"
        },
        {
          "internalType": "uint256",
          "name": "timestamp",
          "type": "uint256"
        },
        {
          "internalType": "bool",
          "name": "retired",
          "type": "bool"
        },
        {
          "internalType": "address",
          "name": "issuer",
          "type": "address"
        },
        {
          "internalType": "uint256",
          "name": "priceWei",
          "type": "uint256"
        }
      ],
      "stateMutability": "view",
      "type": "function"
    },
    {
      "inputs": [
        {
          "internalType": "address",
          "name": "_owner",
          "type": "address"
        }
      ],
      "name": "certificatesOfOwner",
      "outputs": [
        {
          "internalType": "uint256[]",
          "name": "",
          "type": "uint256[]"
        }
      ],
      "stateMutability": "view",
      "type": "function"
    },
    {
      "inputs": [],
      "name": "companies",
      "outputs": [
        {
          "internalType": "address[]",
          "name": "",
          "type": "address[]"
        }
      ],
      "stateMutability": "view",
      "type": "function"
    },
    {
      "inputs": [
        {
          "internalType": "uint256",
          "name": "",
          "type": "uint256"
        }
      ],
      "name": "companyList",
      "outputs": [
        {
          "internalType": "address",
          "name": "",
          "type": "address"
        }
      ],
      "stateMutability": "view",
      "type": "function"
    },
    {
      "inputs": [],
      "name": "defaultPriceWei",
      "outputs": [
        {
          "internalType": "uint256",
          "name": "",
          "type": "uint256"
        }
      ],
      "stateMutability": "view",
      "type": "function"
    },
    {
      "inputs": [
        {
          "internalType": "uint256",
          "name": "_id",
          "type": "uint256"
        }
      ],
      "name": "getCertificate",
      "outputs": [
        {
          "internalType": "uint256",
          "name": "id",
          "type": "uint256"
        },
        {
          "internalType": "address",
          "name": "owner",
          "type": "address"
        },
        {
          "internalType": "uint256",
          "name": "energyWh",
          "type": "uint256"
        },
        {
          "internalType": "uint256",
          "name": "timestamp",
          "type": "uint256"
        },
        {
          "internalType": "bool",
          "name": "retired",
          "type": "bool"
        },
        {
          "internalType": "address",
          "name": "issuer",
          "type": "address"
        },
        {
          "internalType": "uint256",
          "name": "priceWei",
          "type": "uint256"
        }
      ],
      "stateMutability": "view",
      "type": "function"
    },
    {
      "inputs": [
        {
          "internalType": "address",
          "name": "",
          "type": "address"
        }
      ],
      "name": "isAdmin",
      "outputs": [
        {
          "internalType": "bool",
          "name": "",
          "type": "bool"
        }
      ],
      "stateMutability": "view",
      "type": "function"
    },
    {
      "inputs": [
        {
          "internalType": "address",
          "name": "",
          "type": "address"
        }
      ],
      "name": "isCompany",
      "outputs": [
        {
          "internalType": "bool",
          "name": "",
          "type": "bool"
        }
      ],
      "stateMutability": "view",
      "type": "function"
    },
    {
      "inputs": [
        {
          "internalType": "address",
          "name": "",
          "type": "address"
        }
      ],
      "name": "isProducer",
      "outputs": [
        {
          "internalType": "bool",
          "name": "",
          "type": "bool"
        }
      ],
      "stateMutability": "view",
      "type": "function"
    },
    {
      "inputs": [
        {
          "internalType": "address",
          "name": "_owner",
          "type": "address"
        },
        {
          "internalType": "uint256",
          "name": "_energyWh",
          "type": "uint256"
        }
      ],
      "name": "issueCertificate",
      "outputs": [],
      "stateMutability": "nonpayable",
      "type": "function"
    },
    {
      "inputs": [
        {
          "internalType": "uint256",
          "name": "_id",
          "type": "uint256"
        }
      ],
      "name": "issuerOf",
      "outputs": [
        {
          "internalType": "address",
          "name": "",
          "type": "address"
        }
      ],
      "stateMutability": "view",
      "type": "function"
    },
    {
      "inputs": [],
      "name": "minEnergyWh",
      "outputs": [
        {
          "internalType": "uint256",
          "name": "",
          "type": "uint256"
        }
      ],
      "stateMutability": "view",
      "type": "function"
    },
    {
      "inputs": [],
      "name": "nextId",
      "outputs": [
        {
          "internalType": "uint256",
          "name": "",
          "type": "uint256"
        }
      ],
      "stateMutability": "view",
      "type": "function"
    },
    {
      "inputs": [
        {
          "internalType": "uint256",
          "name": "",
          "type": "uint256"
        }
      ],
      "name": "producerList",
      "outputs": [
        {
          "internalType": "address",
          "name": "",
          "type": "address"
        }
      ],
      "stateMutability": "view",
      "type": "function"
    },
    {
      "inputs": [
        {
          "internalType": "address",
          "name": "",
          "type": "address"
        }
      ],
      "name": "producerPriceWei",
      "outputs": [
        {
          "internalType": "uint256",
          "name": "",
          "type": "uint256"
        }
      ],
      "stateMutability": "view",
      "type": "function"
    },
    {
      "inputs": [],
      "name": "producers",
      "outputs": [
        {
          "internalType": "address[]",
          "name": "",
          "type": "address[]"
        }
      ],
      "stateMutability": "view",
      "type": "function"
    },
    {
      "inputs": [
        {
          "internalType": "uint256",
          "name": "_id",
          "type": "uint256"
        }
      ],
      "name": "purchaseCertificate",
      "outputs": [],
      "stateMutability": "payable",
      "type": "function"
    },
    {
      "inputs": [
        {
          "internalType": "address",
          "name": "_company",
          "type": "address"
        }
      ],
      "name": "registerCompany",
      "outputs": [],
      "stateMutability": "nonpayable",
      "type": "function"
    },
    {
      "inputs": [
        {
          "internalType": "address",
          "name": "_producer",
          "type": "address"
        }
      ],
      "name": "registerProducer",
      "outputs": [],
      "stateMutability": "nonpayable",
      "type": "function"
    },
    {
      "inputs": [
        {
          "internalType": "address",
          "name": "_company",
          "type": "address"
        }
      ],
      "name": "removeCompany",
      "outputs": [],
      "stateMutability": "nonpayable",
      "type": "function"
    },
    {
      "inputs": [
        {
          "internalType": "address",
          "name": "_producer",
          "type": "address"
        }
      ],
      "name": "removeProducer",
      "outputs": [],
      "stateMutability": "nonpayable",
      "type": "function"
    },
    {
      "inputs": [
        {
          "internalType": "uint256",
          "name": "_id",
          "type": "uint256"
        }
      ],
      "name": "retireCertificate",
      "outputs": [],
      "stateMutability": "nonpayable",
      "type": "function"
    },
    {
      "inputs": [
        {
          "internalType": "uint256",
          "name": "_defaultPriceWei",
          "type": "uint256"
        }
      ],
      "name": "setDefaultPriceWei",
      "outputs": [],
      "stateMutability": "nonpayable",
      "type": "function"
    },
    {
      "inputs": [
        {
          "internalType": "uint256",
          "name": "_minEnergyWh",
          "type": "uint256"
        }
      ],
      "name": "setMinEnergyWh",
      "outputs": [],
      "stateMutability": "nonpayable",
      "type": "function"
    },
    {
      "inputs": [
        {
          "internalType": "uint256",
          "name": "_priceWei",
          "type": "uint256"
        }
      ],
      "name": "setProducerPrice",
      "outputs": [],
      "stateMutability": "nonpayable",
      "type": "function"
    },
    {
      "stateMutability": "payable",
      "type": "receive"
    }
  ],
  "bytecode": "0x60806040526103e86004556000600555600160065534801561002057600080fd5b50336000806101000a81548173ffffffffffffffffffffffffffffffffffffffff021916908373ffffffffffffffffffffffffffffffffffffffff16021790555060018060003373ffffffffffffffffffffffffffffffffffffffff1673ffffffffffffffffffffffffffffffffffffffff16815260200190815260200160002060006101000a81548160ff021916908315150217905550613b92806100c76000396000f3fe6080604052600436106101a05760003560e01c80636c4ecd84116100ec578063d0366e551161008a578063f0dbc73f11610064578063f0dbc73f146105ff578063f55210221461062a578063f773a91e14610667578063f851a440146106a4576101a7565b8063d0366e551461056e578063d0e91f77146105ab578063d50bba1a146105d6576101a7565b8063a4e2ee11116100c6578063a4e2ee11146104b6578063a5fef057146104f3578063b11d7a071461051c578063bd89cf4714610545576101a7565b80636c4ecd84146104275780637048027514610450578063a0406ce214610479576101a7565b806335a094f2116101595780633f185b6c116101335780633f185b6c1461034d57806351640fee1461037657806361b8ce8c146103b9578063663b3e22146103e4576101a7565b806335a094f2146102cb5780633a73c0b7146102e75780633c530ace14610324576101a7565b80630194ff8c146101a957806310daa531146101d4578063207677de146101ff57806320ee2dcc1461023c57806324d7806c146102655780632bee89fd146102a2576101a7565b366101a757005b005b3480156101b557600080fd5b506101be6106cf565b6040516101cb9190612dc4565b60405180910390f35b3480156101e057600080fd5b506101e961075d565b6040516101f69190612dff565b60405180910390f35b34801561020b57600080fd5b5061022660048036038101906102219190612e4b565b610763565b6040516102339190612e87565b60405180910390f35b34801561024857600080fd5b50610263600480360381019061025e9190612ece565b6107a2565b005b34801561027157600080fd5b5061028c60048036038101906102879190612ece565b610ba7565b6040516102999190612f16565b60405180910390f35b3480156102ae57600080fd5b506102c960048036038101906102c49190612e4b565b610bc7565b005b6102e560048036038101906102e09190612e4b565b610cff565b005b3480156102f357600080fd5b5061030e60048036038101906103099190612ece565b6111b6565b60405161031b9190612fef565b60405180910390f35b34801561033057600080fd5b5061034b60048036038101906103469190612ece565b61124d565b005b34801561035957600080fd5b50610374600480360381019061036f9190612ece565b6115df565b005b34801561038257600080fd5b5061039d60048036038101906103989190612e4b565b6119e4565b6040516103b09796959493929190613011565b60405180910390f35b3480156103c557600080fd5b506103ce611b83565b6040516103db9190612dff565b60405180910390f35b3480156103f057600080fd5b5061040b60048036038101906104069190612e4b565b611b89565b60405161041e9796959493929190613011565b60405180910390f35b34801561043357600080fd5b5061044e60048036038101906104499190613080565b611c18565b005b34801561045c57600080fd5b5061047760048036038101906104729190612ece565b611ff3565b005b34801561048557600080fd5b506104a0600480360381019061049b9190612ece565b6121f8565b6040516104ad9190612f16565b60405180910390f35b3480156104c257600080fd5b506104dd60048036038101906104d89190612e4b565b612218565b6040516104ea9190612e87565b60405180910390f35b3480156104ff57600080fd5b5061051a60048036038101906105159190612ece565b61237e565b005b34801561052857600080fd5b50610543600480360381019061053e9190612e4b565b612682565b005b34801561055157600080fd5b5061056c60048036038101906105679190612e4b565b6127bc565b005b34801561057a57600080fd5b5061059560048036038101906105909190612e4b565b6128f6565b6040516105a29190612e87565b60405180910390f35b3480156105b757600080fd5b506105c0612935565b6040516105cd9190612dff565b60405180910390f35b3480156105e257600080fd5b506105fd60048036038101906105f89190612e4b565b61293b565b005b34801561060b57600080fd5b50610614612bea565b6040516106219190612dc4565b60405180910390f35b34801561063657600080fd5b50610651600480360381019061064c9190612ece565b612c78565b60405161065e9190612f16565b60405180910390f35b34801561067357600080fd5b5061068e60048036038101906106899190612ece565b612c98565b60405161069b9190612dff565b60405180910390f35b3480156106b057600080fd5b506106b9612cb0565b6040516106c69190612e87565b60405180910390f35b6060600b80548060200260200160405190810160405280929190818152602001828054801561075357602002820191906000526020600020905b8160009054906101000a900473ffffffffffffffffffffffffffffffffffffffff1673ffffffffffffffffffffffffffffffffffffffff1681526020019060010190808311610709575b5050505050905090565b60055481565b6009818154811061077357600080fd5b906000526020600020016000915054906101000a900473ffffffffffffffffffffffffffffffffffffffff1681565b600160003373ffffffffffffffffffffffffffffffffffffffff1673ffffffffffffffffffffffffffffffffffffffff16815260200190815260200160002060009054906101000a900460ff1680610845575060008054906101000a900473ffffffffffffffffffffffffffffffffffffffff1673ffffffffffffffffffffffffffffffffffffffff163373ffffffffffffffffffffffffffffffffffffffff16145b610884576040517f08c379a000000000000000000000000000000000000000000000000000000000815260040161087b9061311d565b60405180910390fd5b600360008273ffffffffffffffffffffffffffffffffffffffff1673ffffffffffffffffffffffffffffffffffffffff16815260200190815260200160002060009054906101000a900460ff16610910576040517f08c379a000000000000000000000000000000000000000000000000000000000815260040161090790613189565b60405180910390fd5b6000600360008373ffffffffffffffffffffffffffffffffffffffff1673ffffffffffffffffffffffffffffffffffffffff16815260200190815260200160002060006101000a81548160ff0219169083151502179055506000600c60008373ffffffffffffffffffffffffffffffffffffffff1673ffffffffffffffffffffffffffffffffffffffff16815260200190815260200160002054905060008114610b49576000600b8054905090506000600b6001836109cf91906131d8565b815481106109e0576109df61320c565b5b9060005260206000200160009054906101000a900473ffffffffffffffffffffffffffffffffffffffff16905080600b600185610a1d91906131d8565b81548110610a2e57610a2d61320c565b5b9060005260206000200160006101000a81548173ffffffffffffffffffffffffffffffffffffffff021916908373ffffffffffffffffffffffffffffffffffffffff16021790555082600c60008373ffffffffffffffffffffffffffffffffffffffff1673ffffffffffffffffffffffffffffffffffffffff16815260200190815260200160002081905550600b805480610acc57610acb61323b565b5b6001900381819060005260206000200160006101000a81549073ffffffffffffffffffffffffffffffffffffffff021916905590556000600c60008673ffffffffffffffffffffffffffffffffffffffff1673ffffffffffffffffffffffffffffffffffffffff1681526020019081526020016000208190555050505b3373ffffffffffffffffffffffffffffffffffffffff168273ffffffffffffffffffffffffffffffffffffffff167f1602b194bcf131af998d62f2e41b864e1cac49cba7d7e3fae9d8fe6765c7b03860405160405180910390a35050565b60016020528060005260406000206000915054906101000a900460ff1681565b600260003373ffffffffffffffffffffffffffffffffffffffff1673ffffffffffffffffffffffffffffffffffffffff16815260200190815260200160002060009054906101000a900460ff16610c53576040517f08c379a0000000000000000000000000000000000000000000000000000000008152600401610c4a906132b6565b60405180910390fd5b80600d60003373ffffffffffffffffffffffffffffffffffffffff1673ffffffffffffffffffffffffffffffffffffffff168152602001908152602001600020819055503373ffffffffffffffffffffffffffffffffffffffff163373ffffffffffffffffffffffffffffffffffffffff167fb36c7210bc68c5aacb6ed730281a156e9cac4a4adc879834159ca02d11a59c6e83604051610cf49190612dff565b60405180910390a350565b60006007600083815260200190815260200160002090506000816000015403610d5d576040517f08c379a0000000000000000000000000000000000000000000000000000000008152600401610d5490613322565b60405180910390fd5b8060040160009054906101000a900460ff1615610daf576040517f08c379a0000000000000000000000000000000000000000000000000000000008152600401610da69061338e565b60405180910390fd5b60008160010160009054906101000a900473ffffffffffffffffffffffffffffffffffffffff169050600073ffffffffffffffffffffffffffffffffffffffff168173ffffffffffffffffffffffffffffffffffffffff1603610e47576040517f08c379a0000000000000000000000000000000000000000000000000000000008152600401610e3e906133fa565b60405180910390fd5b8073ffffffffffffffffffffffffffffffffffffffff163373ffffffffffffffffffffffffffffffffffffffff1603610eb5576040517f08c379a0000000000000000000000000000000000000000000000000000000008152600401610eac90613466565b60405180910390fd5b60008260050154905080341015610f01576040517f08c379a0000000000000000000000000000000000000000000000000000000008152600401610ef8906134d2565b60405180910390fd5b60008360010160009054906101000a900473ffffffffffffffffffffffffffffffffffffffff169050338460010160006101000a81548173ffffffffffffffffffffffffffffffffffffffff021916908373ffffffffffffffffffffffffffffffffffffffff160217905550600860003373ffffffffffffffffffffffffffffffffffffffff1673ffffffffffffffffffffffffffffffffffffffff16815260200190815260200160002085908060018154018082558091505060019003906000526020600020016000909190919091505560008373ffffffffffffffffffffffffffffffffffffffff1683604051610ff990613523565b60006040518083038185875af1925050503d8060008114611036576040519150601f19603f3d011682016040523d82523d6000602084013e61103b565b606091505b505090508061107f576040517f08c379a000000000000000000000000000000000000000000000000000000000815260040161107690613584565b60405180910390fd5b82341115611146576000833461109591906131d8565b905060003373ffffffffffffffffffffffffffffffffffffffff16826040516110bd90613523565b60006040518083038185875af1925050503d80600081146110fa576040519150601f19603f3d011682016040523d82523d6000602084013e6110ff565b606091505b5050905080611143576040517f08c379a000000000000000000000000000000000000000000000000000000000815260040161113a906135f0565b60405180910390fd5b50505b3373ffffffffffffffffffffffffffffffffffffffff168273ffffffffffffffffffffffffffffffffffffffff16877f7f1ca4cdaeac966c3fdeba64f76f4d471e069307eee26b1d97f2753a5dab7e8f86426040516111a6929190613610565b60405180910390a4505050505050565b6060600860008373ffffffffffffffffffffffffffffffffffffffff1673ffffffffffffffffffffffffffffffffffffffff16815260200190815260200160002080548060200260200160405190810160405280929190818152602001828054801561124157602002820191906000526020600020905b81548152602001906001019080831161122d575b50505050509050919050565b600160003373ffffffffffffffffffffffffffffffffffffffff1673ffffffffffffffffffffffffffffffffffffffff16815260200190815260200160002060009054906101000a900460ff16806112f0575060008054906101000a900473ffffffffffffffffffffffffffffffffffffffff1673ffffffffffffffffffffffffffffffffffffffff163373ffffffffffffffffffffffffffffffffffffffff16145b61132f576040517f08c379a00000000000000000000000000000000000000000000000000000000081526004016113269061311d565b60405180910390fd5b600073ffffffffffffffffffffffffffffffffffffffff168173ffffffffffffffffffffffffffffffffffffffff160361139e576040517f08c379a000000000000000000000000000000000000000000000000000000000815260040161139590613685565b60405180910390fd5b600260008273ffffffffffffffffffffffffffffffffffffffff1673ffffffffffffffffffffffffffffffffffffffff16815260200190815260200160002060009054906101000a900460ff166115dc576001600260008373ffffffffffffffffffffffffffffffffffffffff1673ffffffffffffffffffffffffffffffffffffffff16815260200190815260200160002060006101000a81548160ff0219169083151502179055506009819080600181540180825580915050600190039060005260206000200160009091909190916101000a81548173ffffffffffffffffffffffffffffffffffffffff021916908373ffffffffffffffffffffffffffffffffffffffff160217905550600980549050600a60008373ffffffffffffffffffffffffffffffffffffffff1673ffffffffffffffffffffffffffffffffffffffff168152602001908152602001600020819055506000600d60008373ffffffffffffffffffffffffffffffffffffffff1673ffffffffffffffffffffffffffffffffffffffff168152602001908152602001600020540361158157600554600d60008373ffffffffffffffffffffffffffffffffffffffff1673ffffffffffffffffffffffffffffffffffffffff168152602001908152602001600020819055505b3373ffffffffffffffffffffffffffffffffffffffff168173ffffffffffffffffffffffffffffffffffffffff167fb3946c8681c432f86195cf1700423b3e6d9f954db423656c0d5d79aab23c8d4460405160405180910390a35b50565b600160003373ffffffffffffffffffffffffffffffffffffffff1673ffffffffffffffffffffffffffffffffffffffff16815260200190815260200160002060009054906101000a900460ff1680611682575060008054906101000a900473ffffffffffffffffffffffffffffffffffffffff1673ffffffffffffffffffffffffffffffffffffffff163373ffffffffffffffffffffffffffffffffffffffff16145b6116c1576040517f08c379a00000000000000000000000000000000000000000000000000000000081526004016116b89061311d565b60405180910390fd5b600260008273ffffffffffffffffffffffffffffffffffffffff1673ffffffffffffffffffffffffffffffffffffffff16815260200190815260200160002060009054906101000a900460ff1661174d576040517f08c379a0000000000000000000000000000000000000000000000000000000008152600401611744906136f1565b60405180910390fd5b6000600260008373ffffffffffffffffffffffffffffffffffffffff1673ffffffffffffffffffffffffffffffffffffffff16815260200190815260200160002060006101000a81548160ff0219169083151502179055506000600a60008373ffffffffffffffffffffffffffffffffffffffff1673ffffffffffffffffffffffffffffffffffffffff1681526020019081526020016000205490506000811461198657600060098054905090506000600960018361180c91906131d8565b8154811061181d5761181c61320c565b5b9060005260206000200160009054906101000a900473ffffffffffffffffffffffffffffffffffffffff16905080600960018561185a91906131d8565b8154811061186b5761186a61320c565b5b9060005260206000200160006101000a81548173ffffffffffffffffffffffffffffffffffffffff021916908373ffffffffffffffffffffffffffffffffffffffff16021790555082600a60008373ffffffffffffffffffffffffffffffffffffffff1673ffffffffffffffffffffffffffffffffffffffff1681526020019081526020016000208190555060098054806119095761190861323b565b5b6001900381819060005260206000200160006101000a81549073ffffffffffffffffffffffffffffffffffffffff021916905590556000600a60008673ffffffffffffffffffffffffffffffffffffffff1673ffffffffffffffffffffffffffffffffffffffff1681526020019081526020016000208190555050505b3373ffffffffffffffffffffffffffffffffffffffff168273ffffffffffffffffffffffffffffffffffffffff167fd44182ff0418a2ebea6c0739317577e08f76ae639586ceef9c50b37183ea534260405160405180910390a35050565b600080600080600080600080600760008a81526020019081526020016000206040518060e0016040529081600082015481526020016001820160009054906101000a900473ffffffffffffffffffffffffffffffffffffffff1673ffffffffffffffffffffffffffffffffffffffff1673ffffffffffffffffffffffffffffffffffffffff16815260200160028201548152602001600382015481526020016004820160009054906101000a900460ff161515151581526020016004820160019054906101000a900473ffffffffffffffffffffffffffffffffffffffff1673ffffffffffffffffffffffffffffffffffffffff1673ffffffffffffffffffffffffffffffffffffffff16815260200160058201548152505090506000816000015103611b46576040517f08c379a0000000000000000000000000000000000000000000000000000000008152600401611b3d9061375d565b60405180910390fd5b806000015181602001518260400151836060015184608001518560a001518660c00151975097509750975097509750975050919395979092949650565b60065481565b60076020528060005260406000206000915090508060000154908060010160009054906101000a900473ffffffffffffffffffffffffffffffffffffffff16908060020154908060030154908060040160009054906101000a900460ff16908060040160019054906101000a900473ffffffffffffffffffffffffffffffffffffffff16908060050154905087565b600260003373ffffffffffffffffffffffffffffffffffffffff1673ffffffffffffffffffffffffffffffffffffffff16815260200190815260200160002060009054906101000a900460ff16611ca4576040517f08c379a0000000000000000000000000000000000000000000000000000000008152600401611c9b906137c9565b60405180910390fd5b600073ffffffffffffffffffffffffffffffffffffffff168273ffffffffffffffffffffffffffffffffffffffff1603611d13576040517f08c379a0000000000000000000000000000000000000000000000000000000008152600401611d0a90613835565b60405180910390fd5b600454811015611d58576040517f08c379a0000000000000000000000000000000000000000000000000000000008152600401611d4f906138a1565b60405180910390fd5b600060065490506000600d60003373ffffffffffffffffffffffffffffffffffffffff1673ffffffffffffffffffffffffffffffffffffffff16815260200190815260200160002054905060008103611db15760055490505b60006040518060e001604052808481526020018673ffffffffffffffffffffffffffffffffffffffff1681526020018581526020014281526020016000151581526020013373ffffffffffffffffffffffffffffffffffffffff16815260200183815250905080600760008581526020019081526020016000206000820151816000015560208201518160010160006101000a81548173ffffffffffffffffffffffffffffffffffffffff021916908373ffffffffffffffffffffffffffffffffffffffff160217905550604082015181600201556060820151816003015560808201518160040160006101000a81548160ff02191690831515021790555060a08201518160040160016101000a81548173ffffffffffffffffffffffffffffffffffffffff021916908373ffffffffffffffffffffffffffffffffffffffff16021790555060c08201518160050155905050600860008673ffffffffffffffffffffffffffffffffffffffff1673ffffffffffffffffffffffffffffffffffffffff16815260200190815260200160002083908060018154018082558091505060019003906000526020600020016000909190919091505560066000815480929190611f7d906138c1565b91905055503373ffffffffffffffffffffffffffffffffffffffff168573ffffffffffffffffffffffffffffffffffffffff16847f6a9669b2dbcc154ec166583fd02936960eabc88f8dd3d4c21122a3b0cb6090d5874287604051611fe493929190613909565b60405180910390a45050505050565b600160003373ffffffffffffffffffffffffffffffffffffffff1673ffffffffffffffffffffffffffffffffffffffff16815260200190815260200160002060009054906101000a900460ff1680612096575060008054906101000a900473ffffffffffffffffffffffffffffffffffffffff1673ffffffffffffffffffffffffffffffffffffffff163373ffffffffffffffffffffffffffffffffffffffff16145b6120d5576040517f08c379a00000000000000000000000000000000000000000000000000000000081526004016120cc9061311d565b60405180910390fd5b600073ffffffffffffffffffffffffffffffffffffffff168173ffffffffffffffffffffffffffffffffffffffff1603612144576040517f08c379a000000000000000000000000000000000000000000000000000000000815260040161213b9061398c565b60405180910390fd5b60018060008373ffffffffffffffffffffffffffffffffffffffff1673ffffffffffffffffffffffffffffffffffffffff16815260200190815260200160002060006101000a81548160ff0219169083151502179055503373ffffffffffffffffffffffffffffffffffffffff168173ffffffffffffffffffffffffffffffffffffffff167fbf3f493c772c8c283fd124432c2d0f539ab343faa04258fe88e52912d36b102b60405160405180910390a350565b60036020528060005260406000206000915054906101000a900460ff1681565b600080600760008481526020019081526020016000206040518060e0016040529081600082015481526020016001820160009054906101000a900473ffffffffffffffffffffffffffffffffffffffff1673ffffffffffffffffffffffffffffffffffffffff1673ffffffffffffffffffffffffffffffffffffffff16815260200160028201548152602001600382015481526020016004820160009054906101000a900460ff161515151581526020016004820160019054906101000a900473ffffffffffffffffffffffffffffffffffffffff1673ffffffffffffffffffffffffffffffffffffffff1673ffffffffffffffffffffffffffffffffffffffff16815260200160058201548152505090506000816000015103612371576040517f08c379a00000000000000000000000000000000000000000000000000000000081526004016123689061375d565b60405180910390fd5b8060a00151915050919050565b600160003373ffffffffffffffffffffffffffffffffffffffff1673ffffffffffffffffffffffffffffffffffffffff16815260200190815260200160002060009054906101000a900460ff1680612421575060008054906101000a900473ffffffffffffffffffffffffffffffffffffffff1673ffffffffffffffffffffffffffffffffffffffff163373ffffffffffffffffffffffffffffffffffffffff16145b612460576040517f08c379a00000000000000000000000000000000000000000000000000000000081526004016124579061311d565b60405180910390fd5b600073ffffffffffffffffffffffffffffffffffffffff168173ffffffffffffffffffffffffffffffffffffffff16036124cf576040517f08c379a00000000000000000000000000000000000000000000000000000000081526004016124c6906139f8565b60405180910390fd5b600360008273ffffffffffffffffffffffffffffffffffffffff1673ffffffffffffffffffffffffffffffffffffffff16815260200190815260200160002060009054906101000a900460ff1661267f576001600360008373ffffffffffffffffffffffffffffffffffffffff1673ffffffffffffffffffffffffffffffffffffffff16815260200190815260200160002060006101000a81548160ff021916908315150217905550600b819080600181540180825580915050600190039060005260206000200160009091909190916101000a81548173ffffffffffffffffffffffffffffffffffffffff021916908373ffffffffffffffffffffffffffffffffffffffff160217905550600b80549050600c60008373ffffffffffffffffffffffffffffffffffffffff1673ffffffffffffffffffffffffffffffffffffffff168152602001908152602001600020819055503373ffffffffffffffffffffffffffffffffffffffff168173ffffffffffffffffffffffffffffffffffffffff167f27703696f2ce1956e890c225ae3aabbc7faa41b44253ff5d686eb4fff34075af60405160405180910390a35b50565b600160003373ffffffffffffffffffffffffffffffffffffffff1673ffffffffffffffffffffffffffffffffffffffff16815260200190815260200160002060009054906101000a900460ff1680612725575060008054906101000a900473ffffffffffffffffffffffffffffffffffffffff1673ffffffffffffffffffffffffffffffffffffffff163373ffffffffffffffffffffffffffffffffffffffff16145b612764576040517f08c379a000000000000000000000000000000000000000000000000000000000815260040161275b9061311d565b60405180910390fd5b806004819055503373ffffffffffffffffffffffffffffffffffffffff167f0c0979a8a26e3e27b1723a09fec4689b9a64ce42ddc44239c33415fb5fc2ca39826040516127b19190612dff565b60405180910390a250565b600160003373ffffffffffffffffffffffffffffffffffffffff1673ffffffffffffffffffffffffffffffffffffffff16815260200190815260200160002060009054906101000a900460ff168061285f575060008054906101000a900473ffffffffffffffffffffffffffffffffffffffff1673ffffffffffffffffffffffffffffffffffffffff163373ffffffffffffffffffffffffffffffffffffffff16145b61289e576040517f08c379a00000000000000000000000000000000000000000000000000000000081526004016128959061311d565b60405180910390fd5b806005819055503373ffffffffffffffffffffffffffffffffffffffff167f65474b78302adeb83237dd476de28b836ae43a0279a797a525a0733e9b3c2398826040516128eb9190612dff565b60405180910390a250565b600b818154811061290657600080fd5b906000526020600020016000915054906101000a900473ffffffffffffffffffffffffffffffffffffffff1681565b60045481565b60006007600083815260200190815260200160002090506000816000015403612999576040517f08c379a000000000000000000000000000000000000000000000000000000000815260040161299090613a64565b60405180910390fd5b8060040160009054906101000a900460ff16156129eb576040517f08c379a00000000000000000000000000000000000000000000000000000000081526004016129e290613ad0565b60405180910390fd5b8060010160009054906101000a900473ffffffffffffffffffffffffffffffffffffffff1673ffffffffffffffffffffffffffffffffffffffff163373ffffffffffffffffffffffffffffffffffffffff161480612a925750600360003373ffffffffffffffffffffffffffffffffffffffff1673ffffffffffffffffffffffffffffffffffffffff16815260200190815260200160002060009054906101000a900460ff165b80612ae65750600160003373ffffffffffffffffffffffffffffffffffffffff1673ffffffffffffffffffffffffffffffffffffffff16815260200190815260200160002060009054906101000a900460ff165b80612b3c575060008054906101000a900473ffffffffffffffffffffffffffffffffffffffff1673ffffffffffffffffffffffffffffffffffffffff163373ffffffffffffffffffffffffffffffffffffffff16145b612b7b576040517f08c379a0000000000000000000000000000000000000000000000000000000008152600401612b7290613b3c565b60405180910390fd5b60018160040160006101000a81548160ff0219169083151502179055503373ffffffffffffffffffffffffffffffffffffffff16827e763bc08ec39fe8a0d74fb4ae2ddf1f4a7cd4c7b5a9afa3afa6be8c5981800842604051612bde9190612dff565b60405180910390a35050565b60606009805480602002602001604051908101604052809291908181526020018280548015612c6e57602002820191906000526020600020905b8160009054906101000a900473ffffffffffffffffffffffffffffffffffffffff1673ffffffffffffffffffffffffffffffffffffffff1681526020019060010190808311612c24575b5050505050905090565b60026020528060005260406000206000915054906101000a900460ff1681565b600d6020528060005260406000206000915090505481565b60008054906101000a900473ffffffffffffffffffffffffffffffffffffffff1681565b600081519050919050565b600082825260208201905092915050565b6000819050602082019050919050565b600073ffffffffffffffffffffffffffffffffffffffff82169050919050565b6000612d2b82612d00565b9050919050565b612d3b81612d20565b82525050565b6000612d4d8383612d32565b60208301905092915050565b6000602082019050919050565b6000612d7182612cd4565b612d7b8185612cdf565b9350612d8683612cf0565b8060005b83811015612db7578151612d9e8882612d41565b9750612da983612d59565b925050600181019050612d8a565b5085935050505092915050565b60006020820190508181036000830152612dde8184612d66565b905092915050565b6000819050919050565b612df981612de6565b82525050565b6000602082019050612e146000830184612df0565b92915050565b600080fd5b612e2881612de6565b8114612e3357600080fd5b50565b600081359050612e4581612e1f565b92915050565b600060208284031215612e6157612e60612e1a565b5b6000612e6f84828501612e36565b91505092915050565b612e8181612d20565b82525050565b6000602082019050612e9c6000830184612e78565b92915050565b612eab81612d20565b8114612eb657600080fd5b50565b600081359050612ec881612ea2565b92915050565b600060208284031215612ee457612ee3612e1a565b5b6000612ef284828501612eb9565b91505092915050565b60008115159050919050565b612f1081612efb565b82525050565b6000602082019050612f2b6000830184612f07565b92915050565b600081519050919050565b600082825260208201905092915050565b6000819050602082019050919050565b612f6681612de6565b82525050565b6000612f788383612f5d565b60208301905092915050565b6000602082019050919050565b6000612f9c82612f31565b612fa68185612f3c565b9350612fb183612f4d565b8060005b83811015612fe2578151612fc98882612f6c565b9750612fd483612f84565b925050600181019050612fb5565b5085935050505092915050565b600060208201905081810360008301526130098184612f91565b905092915050565b600060e082019050613026600083018a612df0565b6130336020830189612e78565b6130406040830188612df0565b61304d6060830187612df0565b61305a6080830186612f07565b61306760a0830185612e78565b61307460c0830184612df0565b98975050505050505050565b6000806040838503121561309757613096612e1a565b5b60006130a585828601612eb9565b92505060206130b685828601612e36565b9150509250929050565b600082825260208201905092915050565b7f4f6e6c792061646d696e00000000000000000000000000000000000000000000600082015250565b6000613107600a836130c0565b9150613112826130d1565b602082019050919050565b60006020820190508181036000830152613136816130fa565b9050919050565b7f436f6d70616e79206e6f74207265676973746572656400000000000000000000600082015250565b60006131736016836130c0565b915061317e8261313d565b602082019050919050565b600060208201905081810360008301526131a281613166565b9050919050565b7f4e487b7100000000000000000000000000000000000000000000000000000000600052601160045260246000fd5b60006131e382612de6565b91506131ee83612de6565b9250828203905081811115613206576132056131a9565b5b92915050565b7f4e487b7100000000000000000000000000000000000000000000000000000000600052603260045260246000fd5b7f4e487b7100000000000000000000000000000000000000000000000000000000600052603160045260246000fd5b7f4f6e6c792070726f647563657200000000000000000000000000000000000000600082015250565b60006132a0600d836130c0565b91506132ab8261326a565b602082019050919050565b600060208201905081810360008301526132cf81613293565b9050919050565b7f496e76616c696420636572746966696361746500000000000000000000000000600082015250565b600061330c6013836130c0565b9150613317826132d6565b602082019050919050565b6000602082019050818103600083015261333b816132ff565b9050919050565b7f4365727469666963617465207265746972656400000000000000000000000000600082015250565b60006133786013836130c0565b915061338382613342565b602082019050919050565b600060208201905081810360008301526133a78161336b565b9050919050565b7f496e76616c69642073656c6c6572000000000000000000000000000000000000600082015250565b60006133e4600e836130c0565b91506133ef826133ae565b602082019050919050565b60006020820190508181036000830152613413816133d7565b9050919050565b7f53656c6c65722063616e6e6f7420627579206f776e2063657274000000000000600082015250565b6000613450601a836130c0565b915061345b8261341a565b602082019050919050565b6000602082019050818103600083015261347f81613443565b9050919050565b7f496e73756666696369656e74207061796d656e74000000000000000000000000600082015250565b60006134bc6014836130c0565b91506134c782613486565b602082019050919050565b600060208201905081810360008301526134eb816134af565b9050919050565b600081905092915050565b50565b600061350d6000836134f2565b9150613518826134fd565b600082019050919050565b600061352e82613500565b9150819050919050565b7f5061796d656e7420666f7277617264696e67206661696c656400000000000000600082015250565b600061356e6019836130c0565b915061357982613538565b602082019050919050565b6000602082019050818103600083015261359d81613561565b9050919050565b7f526566756e64206661696c656400000000000000000000000000000000000000600082015250565b60006135da600d836130c0565b91506135e5826135a4565b602082019050919050565b60006020820190508181036000830152613609816135cd565b9050919050565b60006040820190506136256000830185612df0565b6136326020830184612df0565b9392505050565b7f496e76616c69642070726f647563657200000000000000000000000000000000600082015250565b600061366f6010836130c0565b915061367a82613639565b602082019050919050565b6000602082019050818103600083015261369e81613662565b9050919050565b7f50726f6475636572206e6f742072656769737465726564000000000000000000600082015250565b60006136db6017836130c0565b91506136e6826136a5565b602082019050919050565b6000602082019050818103600083015261370a816136ce565b9050919050565b7f4e6f7420666f756e640000000000000000000000000000000000000000000000600082015250565b60006137476009836130c0565b915061375282613711565b602082019050919050565b600060208201905081810360008301526137768161373a565b9050919050565b7f4f6e6c7920726567697374657265642070726f64756365720000000000000000600082015250565b60006137b36018836130c0565b91506137be8261377d565b602082019050919050565b600060208201905081810360008301526137e2816137a6565b9050919050565b7f496e76616c6964206f776e657200000000000000000000000000000000000000600082015250565b600061381f600d836130c0565b915061382a826137e9565b602082019050919050565b6000602082019050818103600083015261384e81613812565b9050919050565b7f656e657267792062656c6f77206d696e696d756d000000000000000000000000600082015250565b600061388b6014836130c0565b915061389682613855565b602082019050919050565b600060208201905081810360008301526138ba8161387e565b9050919050565b60006138cc82612de6565b91507fffffffffffffffffffffffffffffffffffffffffffffffffffffffffffffffff82036138fe576138fd6131a9565b5b600182019050919050565b600060608201905061391e6000830186612df0565b61392b6020830185612df0565b6139386040830184612df0565b949350505050565b7f496e76616c69642061646d696e00000000000000000000000000000000000000600082015250565b6000613976600d836130c0565b915061398182613940565b602082019050919050565b600060208201905081810360008301526139a581613969565b9050919050565b7f496e76616c696420636f6d70616e790000000000000000000000000000000000600082015250565b60006139e2600f836130c0565b91506139ed826139ac565b602082019050919050565b60006020820190508181036000830152613a11816139d5565b9050919050565b7f496e76616c696420636572740000000000000000000000000000000000000000600082015250565b6000613a4e600c836130c0565b9150613a5982613a18565b602082019050919050565b60006020820190508181036000830152613a7d81613a41565b9050919050565b7f416c726561647920726574697265640000000000000000000000000000000000600082015250565b6000613aba600f836130c0565b9150613ac582613a84565b602082019050919050565b60006020820190508181036000830152613ae981613aad565b9050919050565b7f4e6f74207065726d697474656420746f20726574697265000000000000000000600082015250565b6000613b266017836130c0565b9150613b3182613af0565b602082019050919050565b60006020820190508181036000830152613b5581613b19565b905091905056fea264697066735822122033880d4a44337f2248fcfd42451006a82bc6ac69a70b9ea449900a96c9515a9c64736f6c63430008140033",
  "linkReferences": {},
  "deployedLinkReferences": {}
}